:020000040800F2
:10000000000400209903000871150008111400086D
:1000100069150008A104000861180008000000002C
:100020000000000000000000000000008115000832
:10003000A9040008000000007915000889150008CF
:10004000B3030008B3030008B3030008B3030008B8
:10005000B3030008B3030008B3030008B3030008A8
:10006000B3030008B3030008B3030008B303000898
:10007000B3030008B3030008B3030008B303000888
:10008000B3030008B3030008B3030008B303000878
:10009000B3030008B3030008B3030008B303000868
:1000A000B3030008B3030008B3030008B303000858
:1000B000B3030008B3030008B3030008B303000848
:1000C000B3030008B3030008B3030008B303000838
:1000D000B3030008B3030008B3030008B303000828
:1000E000B3030008B303000800000000B3030008D6
:1000F000B3030008B3030008B3030008B303000808
:10010000B3030008B3030008B3030008B3030008F7
:10011000B3030008B3030008B3030008B3030008E7
:10012000B3030008B3030008B3030008B3030008D7
:10013000B3030008B3030008B3030008B3030008C7
:1001400000000000000000000000000000000000AF
:10015000B3030008B3030008B3030008B3030008A7
:10016000B3030008B3030008B3030008B303000897
:10017000B3030008B3030008B30300080000000045
:10018000B3030008B3030008B3030008B303000877
:10019000B3030008B3030008B3030008B303000867
:1001A000B3030008B3030008B30300080000000015
:1001B000B3030008B3030008B3030008B303000847
:1001C000B3030008B30300080000000000000000B3
:1001D0000000000000000000B30300080000000061
:1001E000000000000000000000000000000000000F
:1001F0000000000000000000B3030008B303000883
:10020000B3030008B303000800000000B3030008B4
:10021000B3030008B3030008B3030008B3030008E6
:10022000B303000800000000B30300080000000052
:10023000B3030008B303000800000000B303000884
:10024000B3030008B3030008B3030008B3030008B6
:10025000B3030008B3030008B3030008B3030008A6
:10026000B3030008B3030008B3030008B303000896
:10027000B3030008B3030008B30300080000000044
:10028000B3030008B3030008B3030008B303000876
:1002900000000000B3030008B303000800000000E2
:1002A00000000000B3030008B3030008B303000814
:1002B000B3030008B3030008B3030008B303000846
:1002C000B3030008B3030008B303000800F002F80A
:1002D00000F052F814A696E8000CB244B344DA4594
:1002E00001D100F049F8BAE80F000FA696E83000F7
:1002F000A5EB040504EB0607AAEB0704A7F1010729
:100300004FEA15154FEA3414A4F10104AC4201D3AD
:1003100000F032F813F0010F18BFFB1A43F001038D
:1003200000F001F8DBE7184780160000B016000067
:10033000103A24BF78C878C1FAD8520724BF30C811
:1003400030C144BF04680C60704700007047000073
:100350000023002400250026103A28BF78C1FBD8CE
:10036000520728BF30C148BF0B6070471FB501F06E
:1003700005FB1FBD10B510BD00F058F81146FFF782
:10038000F5FF01F071FA00F076F803B4FFF7F2FF21
:1003900003BC00F07DF80000094880470948004789
:1003A000FEE7FEE7FEE7FEE7FEE7FEE7FEE7FEE725
:1003B000FEE7FEE704480549054A064B7047000082
:1003C00049160008CD020008100100240004002096
:1003D00010030024000000204FF0000200B5134677
:1003E00094469646203922BFA0E80C50A0E80C5055
:1003F000B1F12001BFF4F7AF090728BFA0E80C5006
:1004000048BF0CC05DF804EB890028BF40F8042BFE
:1004100008BF704748BF20F8022B11F0804F18BF6B
:1004200000F8012B7047704770477047754600F021
:100430002BF8AE4605006946534620F00700854676
:1004400018B020B5FFF7B6FFBDE820404FF000061A
:100450004FF000074FF000084FF0000BAC46ACE83F
:10046000C009ACE8C009ACE8C009ACE8C00921F09B
:1004700007018D46704710B50446AFF30080204653
:10048000BDE81040FFF781BF00487047100000240E
:1004900001491820ABBEFEE72600020070470000AD
:1004A000FEE70000000000007047000000000000B0
:1004B000EFF3108072B600BFFEE7000000000000FE
:1004C0002DE9F04F83B00E68002E00F0C78000F1D8
:1004D000264742F2004507F1FF77C5F602050A22DA
:1004E000A8424FEAB72500F1200308BF0922009374
:1004F000082D38BF4FEAB722002400274FF0000A2A
:1005000001920AE00AF1010A0E6836FA0AF207F1CE
:10051000020704F1040400F0A180012202FA0AFBA0
:1005200016EA0B08EED0D1F80490032209F0030E6E
:10053000AEF10106012E02FA07F610D8D0F808C075
:10054000CD682CEA0602BD402A438260C9F300153B
:10055000426822EA0B0205FA0AF52A434260BEF11C
:10056000030F1FD0C2688D68B243BD40BEF1020FB9
:1005700042EA0502C26015D16FF00302009D02EA53
:100580005A0B04F01C030F2255F80BC002FA03FEAD
:10059000D1F810902CEA0E0C09FA03F343EA0C038D
:1005A00045F80B3002684B68B24303F00306BE40C7
:1005B00013F4403F42EA06020260A3D044F2F4433F
:1005C00040F2084CC5F60203C5F6000C0F251A6868
:1005D00042F002021A601A6802F0020202922AF045
:1005E0000302029B04F00C0352F80C609D40AE43E2
:1005F000019D05FA03F3334342F80C304FF0B04C41
:10060000DCF800204B6842EA0806DD0258BF22EA07
:1006100008069D02CCF8006040F2040CC5F6000C00
:10062000DCF8002042EA080658BF22EA08069D03CB
:10063000CCF80060DCF8802042EA080658BF22EAC5
:100640000806DB03CCF88060DCF87C2042EA080670
:1006500058BF22EA0806CCF87C6053E703B0BDE837
:10066000F08F0000000000000069084018BF012062
:100670007047000000000000002A08BF09048161E3
:10068000704700000000000040F20C10C2F2004071
:10069000006870470000000040F2080040F20C11B2
:1006A000C2F20040C2F2004100780A6810440860BB
:1006B000704700000000000080B5032000F0ECF857
:1006C00000F046FA44F2184141F69613C5F60201CD
:1006D000C0F600030A68C2F303229A5C096801F0BD
:1006E0000F0102F01F02595CD04040F20402C2F236
:1006F000004201F01F0120FA01F1116040F20001F7
:10070000C2F2004108600F2000F00AF800281CBF68
:10071000012080BD00F080F8002080BD00000000B6
:1007200040F20801C2F20041097819B310B504463D
:1007300040F20000C2F200404FF47A72B2FBF1F1D5
:100740000068B0FBF1F000F073FD0F2C01464FF094
:1007500001000ED8002918BF10BD4FF0FF30002255
:10076000214600F069F840F20C010020C2F200417D
:100770000C6010BD0120704710B54EF6A05E4378A6
:10078000CEF2000E90F800C04EF8083CDEF80030C3
:1007900023F00103CEF8003043684EF8043C037B9D
:1007A000C27A817A447B120642EA0372837B42EA70
:1007B000C141C27B41EA8441447A41EA4341007A23
:1007C00041EA024141EA042141EA400040EA0C00CA
:1007D000CEF8000010BD00004EF62450CEF200000E
:1007E000BFF35F8F016821F4803101600021016750
:1007F00070470000000000004EF6245140F0010058
:10080000CEF200010867086840F480300860BFF34A
:100810004F8FBFF36F8F704781B044F2F440C5F63D
:100820000200016841F002010160006800F002006E
:100830000090009801B0704770B54EF60C5C4FF018
:10084000FF36CEF2000C00F1604505F56445DCF89A
:100850000030C3F3022E8EF00703042B28BF0423BD
:10086000BEF1030406FA03F321EA030100F00F03CB
:1008700038BF0024043B0028634406FA04F048BF54
:1008800003F10C05A14022EA000008430001287092
:1008900070BD0000000000004EF60C514FF6FF0343
:1008A000CEF200010A681A4060F30A2242F080602A
:1008B00040F0FD7008607047B0B544F60C05C5F611
:1008C000020529684907296805D401F00701081ABB
:1008D00018BF0120B0BD21F0070108432860FFF7D1
:1008E000D3FE044655F8080C800407D4FFF7CCFE6D
:1008F000001BB0F57A7FF5D90120B0BD0020B0BD56
:100900002DE9F04381B0002800F0F88042F20008A1
:100910000446C5F200288946D8F8000000F00F0010
:1009200088420ED2D8F8000020F00F0040EA0900FB
:10093000C8F80000D8F8000000F00F00484540F06B
:10094000DD80206844F218474107C5F602070AD542
:1009500021693A6802F07002914204D93A6822F0A3
:1009600070021143396001070AD561697A6802F0A3
:100970007002914204D97A6822F0700211437960C2
:10098000C1060AD5A1697A6802F4E062914204D9ED
:100990007A6822F4E0621143796081060AD5E16940
:1009A000BA6802F07002914204D9BA6822F070026B
:1009B0001143B96081070AD5E1683A6802F00F0275
:1009C000914204D93A6822F00F0211433960C007FE
:1009D00040F08080206881070AD5E1683A6802F01B
:1009E0000F02914204D23A6822F00F02114339609B
:1009F000D8F8001001F00F0149450DD9D8F80010C2
:100A000021F00F0141EA0901C8F80010D8F80010E0
:100A100001F00F01494571D141070AD521693A68B2
:100A200002F07002914204D23A6822F0700211433F
:100A3000396001070AD561697A6802F07002914253
:100A400004D27A6822F0700211437960C1060AD597
:100A5000A1697A6802F4E062914204D27A6822F4D1
:100A6000E0621143796080060AD5E069B96801F057
:100A70007001884204D2B96821F070010843B8605F
:100A800000F066F8396841F69612C0F60002C1F32C
:100A90000321515C3B6803F00F0301F01F01D25C9E
:100AA00020FA01F102F01F0040F20402C2F20042FB
:100AB00021FA00F0106040F20C0040F20002C2F295
:100AC0000040C2F200420068116001B0BDE8F0438E
:100AD000FFF726BE386820F47061D4E901021143A3
:100AE0003960012857F8181C0CD0032804D00228BC
:100AF00028D1890302D507E0890105D4012001B07E
:100B0000BDE8F083C905F9D557F8081C21F00701A5
:100B1000084347F8080CFFF7B7FD064641F2883551
:100B200057F8080C616800F03800B0EBC10F3FF4D3
:100B300051AFFFF7A9FD801BA842F1D9032001B0F6
:100B4000BDE8F0834907D9D5DEE7000000000000CA
:100B500044F20041C5F602010869C0F3C20003284F
:100B600014D002280DD080BB0868800649F200002E
:100B7000C0F2D03058BF70470968C1F3C101C84006
:100B8000704743F20060C0F26E1070478A6A886A4C
:100B9000C0F3051CC86ABCF1000F4B6B1AD000F003
:100BA0000100404200EAD3006FF35F3000EE100A0C
:100BB00002F003000228B8EE400A0DD078B90868A8
:100BC00080060FD49FED231A19E040F60010C0F202
:100BD0003D007047002070479FED1D1A0FE09FED0C
:100BE0001B1A0CE0086849F20002C0F2D032C0F3D0
:100BF000C10022FA00F001EE100AB8EE411A086BAB
:100C00009FED153A6FF35F2002EE100A086BC0F3F8
:100C10004620B8EE422A013000EE032A00EE10CA48
:100C2000B7EE003AB8EE400A81EE000A32EE031A3F
:100C300020EE010A01EE100AB8EE411A80EE010A18
:100C4000BCEEC00A10EE100A704700BF0024744AC0
:100C5000001BB74B0024744C00000039000000005A
:100C60002DE9F04381B0002800F09781804600789C
:100C700044F20049C007C5F6020954D0D9F8100063
:100C800000F03801D9F82800102905D018290CD116
:100C900000F00300022808D1D9F8000080033ED5F7
:100CA000D8F80400D8BB01272CE0D8F80450D9F8B4
:100CB00000002DB1B5F5A02F0BD0B5F5803F0ED0BB
:100CC00020F48030C9F80000D9F8000020F480201A
:100CD00007E040F48020C9F80000D9F8000040F493
:100CE0008030C9F80000FFF7CFFC002D054612D078
:100CF000D9F80000800312D4FFF7C6FC401B64281B
:100D0000F6D90327002070B98CE100BFFFF7BCFCC7
:100D1000401B6428F5D8D9F800008003F6D40120E0
:100D2000002800F07F8198F8000080076AD5D9F884
:100D3000100010F03801D9F828001DD0182908BF7C
:100D40005FEA807018D0D8F80C00D9F8001000289D
:100D500040D021F019010843C9F80000FFF794FCC6
:100D6000054600BFD9F80000400727D4FFF78CFCE8
:100D7000401B0228F6D91EE0D9F80000400704D530
:100D8000D8F80C00002800F0AC81D9F80000D8F8A1
:100D90000C1020F019000843C9F80000FFF774FC9C
:100DA000054600BFD9F80000400707D4FFF76CFCE8
:100DB000401B0228F6D90327002420E0D9F80400BC
:100DC000D8F8101020F0FE40012440EA0160C9F874
:100DD000040014E021F00100C9F80000FFF754FC02
:100DE00005460126D9F8000010F0040086EA9004B8
:100DF00005D0FFF749FC401B0228F3D90327002C3C
:100E000000F0108198F80000C00656D5D9F81000FF
:100E100000F03801D9F82800082905D0182917D181
:100E200000F00300012813D1D9F80000C00503D554
:100E3000D8F81C0080283BD1D9F80C00D8F8201035
:100E400020F07C50012440EA0160C9F80C0031E038
:100E5000D8F81C000028D9F8000012D040F080001B
:100E6000C9F80000FFF710FC054600BFD9F80000E4
:100E7000C005E1D4FFF708FC401B0228F6D9032780
:100E800017E020F08000C9F80000FFF7FDFB0546E1
:100E9000012600BFD9F8000010F4807086EA102403
:100EA00008D0FFF7F1FB401B0228F3D9032701E02C
:100EB00001270024002C00F0B58098F800000007FE
:100EC0006DD498F80000800600F1818098F8000049
:100ED000400700F19480D8F82440002C5BD0D9F86A
:100EE000100000F03800182840F0D980012CD9F803
:100EF0002810D9F8300050D001F00302D8F828307B
:100F00009A424AD1C1F30511D8F82C20914244D11C
:100F10000146D8F830206FF35F21013A91423CD16D
:100F2000C0F34622D8F8341001398A4235D1C0F3D3
:100F30000642D8F8381001398A422ED1C0F3066033
:100F4000D8F83C100139884227D1D9F83400D8F8B4
:100F50004810C0F3CC0081421DD0D9F82C0020F0FD
:100F60000100C9F82C00FFF78FFB0546FFF78CFB4B
:100F7000A842FBD0D9F834004FF6F871D8F84820D1
:100F8000884340EAC200C9F83400D9F82C0040F088
:100F90000100C9F82C00002744E0012742E0D8F8FE
:100FA00014000028D9F8740040D040F00100C9F8BE
:100FB0007400FFF769FB0546D9F8740080073FF518
:100FC00080AFFFF761FB401B0228F5D929E0D8F874
:100FD00018000028D9F800004DD040F48050C9F81E
:100FE0000000FFF751FB0546D9F8000080043FF5EB
:100FF0006DAFFFF749FB401B0228F5D911E0D9F886
:10100000000440F48070C9F80004FFF73DFB05467A
:10101000D9F80004C0051CD4FFF736FB401B642838
:10102000F6D90327F8B201B0BDE8F08320F0010043
:10103000C9F87400FFF728FB05460327D9F87400A8
:1010400080077FF53EAFFFF71FFB401B0228F5D955
:10105000E8E7D8F80850D9F870001DB1052D42D046
:10106000012D46D020F00100C9F87000D9F87000B9
:1010700020F004003FE020F48050C9F80000FFF7A2
:1010800003FB0546032700BFD9F8000080047FF565
:101090001DAFFFF7F9FA401B0228F5D9C2E7D9F8CE
:1010A000000020F08070C9F80000FFF7EDFA022C74
:1010B00005464FF0030709D1D9F8000080013CD55F
:1010C000FFF7E2FA401B0228F6D9ABE7D9F8000097
:1010D00080017FF560AFFFF7D7FA401B0228F5D9F2
:1010E000A0E7012768E640F00400C9F87000D9F8CD
:1010F000700040F00100C9F87000FFF7C5FA002D3C
:10110000054641F288344FF0030711D0D9F870003A
:1011100080073FF5E0AEFFF7B7FA401BA042F5D9D4
:1011200080E700BFFFF7B0FA401BA0423FF67AAF5E
:10113000D9F870008007F5D4CDE608F12807D9F872
:10114000280040F2F33188438ECF0843591E40EA0D
:1011500002104FF47E426FF35F21C9F8280002EBC2
:1011600047204FF4FE0280B2D8F83C300844D8F84B
:10117000381002EB01414FF0FE4201F4FE0102EB98
:101180000362084402F0FE410844C9F83000D9F86F
:101190002C004FF6F87120F00100C9F82C00D9F8A6
:1011A0003400D8F84820884340EAC200C9F8340027
:1011B000D9F82C00D8F8401020F00C000843C9F8EA
:1011C0002C00D9F82C00D8F8441020F00200084375
:1011D000C9F82C00D9F82C0040F48030C9F82C0054
:1011E000D9F82C0040F40030C9F82C00D9F82C00B4
:1011F00040F48020C9F82C00D9F82C0040F0010000
:10120000C9F82C00D9F8000040F08070C9F800003F
:10121000FFF73AFA04460327D9F8000080013FF5AA
:10122000BAAEFFF731FA001B0228F5D9FAE6000042
:10123000411E0020B0EB116F01D0012070474EF22B
:101240001002F023CEF2000251604EF62351CEF28E
:1012500000010B70072190601160704700000000D2
:1012600060B310B5044690F83D0028B9002084F81A
:101270003C00204600F024F8022084F83D0020685D
:10128000211D00F039FA012084F8480084F83E005E
:1012900084F83F0084F8400084F8410084F842005C
:1012A00084F8430084F8440084F8450084F846003C
:1012B00084F8470084F83D00002010BD01207047ED
:1012C00082B042F200010068C4F20001884214D0EA
:1012D00041F60041C4F2000188421BD144F2E840CB
:1012E000C5F60200016841F080010160006800F06D
:1012F00080000190019802B0704744F2E840C5F6C2
:101300000200016841F480710160006800F480709F
:101310000090009802B0704790F83D1001291ED14E
:10132000022180F83D1001684DF6FF70C4F2000004
:10133000814216DC40F2FF70C4F20000814228DDD9
:1013400040F60000C4F20000814234D040F6004074
:10135000C4F2000081422ED041F6000027E00120B7
:1013600070474FF6FF70C4F20000814217DD002085
:10137000C4F2010081421ED044F20000C4F2010018
:10138000814218D040F20040C4F20100814212D0E4
:101390001DE0B1F1804F0ED040F2004007E04EF268
:1013A0000000C4F20000814205D04EF20040C4F2B9
:1013B000000081420BD107228868C0F2010202407E
:1013C0000020062A18BFB2F5803F00D17047086898
:1013D00040F001000860002070470000000000009D
:1013E0000146006841F21113026A1A4208D1026AEA
:1013F00040F244431A4203D1026822F00102026023
:101400000020012281F83D2070470000000000000C
:10141000FEE70000000000002DE9F04387B044F231
:10142000E0400027C5F602000697CDE90477CDE934
:101430000277016841F2000441F004010160016893
:10144000C5F6020401F0040101910199016841F01F
:10145000800101600168A4F5006501F0800101913F
:101460000199016841F0100101600168002201F05A
:10147000100101910199016841F0010101600068CA
:101480004FF4004100F001000190019828464FF40C
:101490000046FFF7F1F84FF40051002220464FF4C8
:1014A0000058FFF7E9F8029602AE284631464FF0A1
:1014B00001090597CDE90397FFF702F84FF4007093
:1014C0003146CDE9020720460497FEF7F9FF204692
:1014D0003146CDE90289CDE90477FEF7F1FF07B087
:1014E000BDE8F0830000000080B540F2740041F6D2
:1014F0000041C2F20040C4F2000140F2E732016054
:101500004FF48971416000218160C0E9032181614C
:10151000FFF7A6FE002808BF80BDBDE88040FEF7AB
:10152000C7BF00000000000080B540F2C00042F2DA
:101530000001C2F20040C4F200014FF6FF720160E8
:101540004FF48971416000218160C0E9032181610C
:10155000FFF786FE002808BF80BDBDE88040FEF78B
:10156000A7BF000000000000FEE700000000000030
:10157000FEE70000000000007047000000000000CF
:101580007047000000000000FFF786B80000000070
:10159000B0B59CB044F6180409A84C21C5F6020465
:1015A000FEF71AFF02200025CDE90755CDE90555C4
:1015B000CDE90355CDE90155FFF77EF90095206887
:1015C00020F440402060206800F4404000900098E3
:1015D00020688004FCD50220099012900025CDE9F6
:1015E00017000C200121CDE919054FF4C0601B90B4
:1015F00009A80C9140240D941395042214921122F1
:10160000CDE91521FFF72CFB18B1EFF3108072B66E
:10161000FEE73F20019003200321CDE902054FF4AE
:1016200080600694CDE9070401A8CDE90454FFF7D2
:1016300067F920B1EFF3108072B600BFFEE71CB06F
:10164000B0BD0000000000004EF6885042F2000CD1
:10165000CEF20000C5F2002C026842F47002026073
:10166000DCF8000000F00F00062806D8DCF80000C7
:10167000072262F30300CCF8000044F200404EF66B
:101680007F51C5F60200CEF6F621026842F0010253
:10169000026000220261036819400160DCF800105A
:1016A000090706D5DCF80010072363F30301CCF823
:1016B000001040F200218261C261C0F20221026288
:1016C00081620021C0F2FF11C16240F28021C0F2AC
:1016D0000111016342638163C26301644264016872
:1016E00021F480210160026644F20000C5F200206E
:1016F00043F2D2010160704740F6FF32C4F20002AB
:10170000904202680FDCB0F1804F1DD040F20043E0
:10171000C4F20003984217D040F60003C4F200035D
:10172000984211D014E040F60043C4F200039842FE
:101730000AD040F20043C4F20103984204D00023CF
:10174000C4F20103984203D122F070024B681A439D
:101750004EF2FF3343F6FF7CC4F20003C4F2010CE7
:1017600098420FDD604522DC4EF20043C4F20003D4
:10177000984238D00023C4F20103984233D040F29B
:10178000004322E040F2FF73C4F20003984221DDDF
:1017900040F60003C4F20003984224D040F6004310
:1017A000C4F2000398421ED04EF2000317E044F248
:1017B0000003C4F20103984215D044F60003C4F2BA
:1017C000010398420FD044F20043C4F2010398424F
:1017D00009D00CE0B0F1804F05D040F20043C4F2D4
:1017E0000003984203D122F44072CB681A4310B52B
:1017F00022F08002D1F800E04C698B68224302603D
:10180000C3626045C0F828E0BDE810400EDD44F238
:101810000002C4F20102904213D044F60002C4F266
:10182000010290420DD044F2004206E00022C4F2D0
:101830000102904205D040F20042C4F201029042FF
:1018400001D109690163012141610169C90708BF2B
:101850007047016921F0010101617047000000003B
:10186000FEE700000000000084B041F200044FF0E9
:101870000008CDF80C80C5F60204CDE90188CDF84A
:101880000080FEF7A9FF0120ADF8000048F21F70AC
:10189000029040F2011003906846CDF80480FEF7F4
:1018A0006BFF0420FEF7A8FFFEF706FFFFF770FEB0
:1018B000FFF7B2FDFFF718FEFFF736FEA4F5006054
:1018C0004FF400410122FEF7D7FEB6EE008A40F247
:1018D000740541F6244740F2C00640F27009C2F296
:1018E0000045C4F20007C2F200469FED229AC2F200
:1018F00000499FED21AA00BF4FF40051012220466C
:10190000FEF7BAFE2846FFF707FD00BF3868142827
:10191000FCD34FF4005100222046FEF7ADFE2846CE
:10192000FFF75EFD2868C0F8248000BF4FF4007107
:101930002046FEF799FE0028F8D03046FFF7ECFC71
:101940004FF400712046FEF78FFE0028F8D1304694
:10195000FFF746FD306890ED090AB8EE400A20EE28
:10196000090A20EE0A0A20EE080A89ED000AC0F8EA
:101970002480C1E7BD3786350000AA43F1EE100A86
:101980004FF6FF71C0F2C03120EA010040F0407014
:10199000E1EE100A7047000000000102030401029A
:1019A0000304060708090000D819000800000024F5
:1019B0001000000030030008D819000800000020C3
:1019C0000004000050030008E8190008100000247B
:1019D00000030000500300080090D0030090D003E3
:0819E0000100000010000000EE
:04000005080002CD20
:00000001FF
